:08000000803102288731F02F46
:10013A0016302100970008002000110E890C0139A1
:10014A00080071082000B4007008B30008007108A4
:10015A002000B8007008B700080071082000B60037
:10016A007008B50008005830210099002200960155
:10017A000800640080010131890BBF2800348031F6
:10018A00E02080318031B820803180319D2080315B
:10019A008031F920803108002000911ED528D62808
:1001AA00D128B20123009D1CDB28DC28DE281D1281
:1001BA001D161908080022008C018D018E013F309E
:1001CA0021008C0070308D008E01CF3023008E000C
:1001DA0010308D0017308C0024008D018C01210015
:1001EA00951722009D010800083023009F009030D7
:1001FA009D0024309E0019309B009C010030F000C5
:10020A000030F1008031AC2080310030F000003045
:10021A00F1008031B22080310030F0000030F1006E
:10022A008031A62080312000B201080070037104D9
:10023A00031D202921294B297A08803AF2008130AE
:10024A007202031D2A29F430790203182D292E2956
:10025A00392922000E140130F9070030FA3D5330D3
:10026A00890B352900004B297A08803AF20083303D
:10027A007202031D4229E8307902031845294629EA
:10028A00492922000E103029F901FA0102307006BC
:10029A007104031D512952297C297A08803AF200F7
:1002AA0081307202031D5B29F430790203185E293A
:1002BA005F296A2922008E140130F9070030FA3DBD
:1002CA005330890B662900007C297A08803AF200AB
:1002DA0083307202031D7329E830790203187629E4
:1002EA0077297A2922008E106129F901FA0103304F
:1002FA0070067104031D82298329AD297A08803A80
:10030A00F20081307202031D8C29F430790203183D
:10031A008F2990299B2922000E150130F9070030F8
:10032A00FA3D5330890B97290000AD297A08803AA3
:10033A00F20083307202031DA429E83079020318FF
:10034A00A729A829AB2922000E119229F901FA013D
:10035A00043070067104031DB329B429DE297A0812
:10036A00803AF20081307202031DBD29F43079020D
:10037A000318C029C129CC2922008E150130F9079A
:10038A000030FA3D5330890BC8290000DE297A086B
:10039A00803AF20083307202031DD529E8307902CF
:1003AA000318D829D929DC2922008E11C329F90179
:1003BA00FA01053070067104031DE429E5290F2AA4
:1003CA007A08803AF20081307202031DEE29F43075
:1003DA0079020318F129F229FD2922000E160130AB
:1003EA00F9070030FA3D5330890BF92900000F2A2A
:1003FA007A08803AF20083307202031D062AE83036
:10040A0079020318092A0A2A0D2A22000E12F4294F
:10041A00F901FA01063070067104031D152A162A1D
:10042A00402A7A08803AF20081307202031D1F2A9C
:10043A00F43079020318222A232A2E2A22008E1641
:10044A000130F9070030FA3D5330890B2A2A00009F
:10045A00402A7A08803AF20083307202031D372A52
:10046A00E830790203183A2A3B2A3E2A22008E12E1
:10047A00252AF901FA01073070067104031D462A7C
:10048A00472A712A7A08803AF20081307202031DE3
:10049A00502AF43079020318532A542A5F2A220078
:1004AA000E170130F9070030FA3D5330890B5B2AE9
:1004BA000000712A7A08803AF20083307202031D22
:1004CA00682AE830790203186B2A6C2A6F2A2200FC
:1004DA000E13562AF901FA01083070067104031D39
:1004EA00772A782AA22A7A08803AF20081307202A0
:1004FA00031D812AF43079020318842A852A902A56
:10050A0022008E170130F9070030FA3D5330890B6B
:10051A008C2A0000A22A7A08803AF20083307202FA
:10052A00031D992AE830790203189C2A9D2AA02AD9
:10053A0022008E13872AF901FA0108008031C420AB
:10054A00823122008E01F701F801132B20002A03C1
:10055A00031DB02AB12AB82A0130F0000030F10098
:10056A0081311B21823120002B03031DBD2ABE2AA3
:10057A00C52A0230F0000030F10081311B2182319E
:10058A0020002C03031DCA2ACB2AD22A0330F000EA
:10059A000030F10081311B21823120002D03031D1F
:1005AA00D72AD82ADF2A0430F0000030F10081313E
:1005BA001B21823120002E03031DE42AE52AEC2A9E
:1005CA000530F0000030F10081311B21823120001A
:1005DA002F03031DF12AF22AF92A0630F00000300F
:1005EA00F10081311B21823120003003031DFE2AD4
:1005FA00FF2A062B0730F0000030F10081311B2161
:10060A00823120003103031D0B2B0C2B132B0830D6
:10061A00F0000030F10081311B2182318031A120AC
:10062A008231003A03191A2B1B2BAB2A8031D120B5
:10063A008231F3007708203E860087017308810023
:10064A007708203E8600870123300106031D2E2BE2
:10065A002F2B332B0A30F7000030F8000130F70750
:10066A000030F83D7808803AF30080307302031DA9
:10067A00402B0A307702031C432B442B132B4E309A
:10068A0020002106031D4A2B4B2B4F2BFC01FC0A91
:10069A00FB01FD0146302106031D542B552B592B16
:1006AA00FC01FB01FB0AFD014C302106031D5E2BF8
:1006BA005F2B632BFC01FB01FD01FD0A7C03031D7B
:1006CA00672B682BA32C4F302006031D6D2B6E2B36
:1006DA008A2B4E302106031D732B742B8A2B303044
:1006EA002206031D792B7A2B8A2B31302306031D10
:1006FA007F2B802B8A2B23302406031D852B862BE8
:10070A008A2B22000E142000AA014F302006031D56
:10071A008F2B902BAC2B4E302106031D952B962B3D
:10072A00AC2B30302206031D9B2B9C2BAC2B32307A
:10073A002306031DA12BA22BAC2B23302406031D59
:10074A00A72BA82BAC2B22008E142000AB014F3014
:10075A002006031DB12BB22BCE2B4E302106031DD2
:10076A00B72BB82BCE2B30302206031DBD2BBE2B48
:10077A00CE2B33302306031DC32BC42BCE2B2330A1
:10078A002406031DC92BCA2BCE2B22000E152000CE
:10079A00AC014F302006031DD32BD42BF02B4E3047
:1007AA002106031DD92BDA2BF02B30302206031D2C
:1007BA00DF2BE02BF02B34302306031DE52BE62B31
:1007CA00F02B23302406031DEB2BEC2BF02B2200FD
:1007DA008E152000AD014F302006031DF52BF62B98
:1007EA00122C4E302106031DFB2BFC2B122C303011
:1007FA002206031D012C022C122C35302306031D60
:10080A00072C082C122C23302406031D0D2C0E2C29
:10081A00122C22000E162000AE014F302006031DB6
:10082A00172C182C342C4E302106031D1D2C1E2C7F
:10083A00342C30302206031D232C242C342C363041
:10084A002306031D292C2A2C342C23302406031DAD
:10085A002F2C302C342C22008E162000AF014F3062
:10086A002006031D392C3A2C562C4E302106031D26
:10087A003F2C402C562C30302206031D452C462C8A
:10088A00562C37302306031D4B2C4C2C562C233068
:10089A002406031D512C522C562C22000E17200020
:1008AA00B0014F302006031D5B2C5C2C782C4E3097
:1008BA002106031D612C622C782C30302206031D80
:1008CA00672C682C782C38302306031D6D2C6E2C6F
:1008DA00782C23302406031D732C742C782C2200C8
:1008EA008E172000B1014F302006031D7D2C7E2C6F
:1008FA00A32C4E302106031D832C842CA32C2A30D2
:10090A002206031D892C8A2CA32C23302306031DBF
:10091A008F2C902CA32CFF3022008E00F401740837
:10092A002A3E8600870181010130F3007308F4072B
:10093A0008307402031CA22CA32C942C7B03031DE5
:10094A00A72CA82C1B2E4F3020002006031DAE2CEE
:10095A00AF2CD12C46302106031DB42CB52CD12C3A
:10096A0046302206031DBA2CBB2CD12C303023066C
:10097A00031DC02CC12CD12C31302406031DC62CDA
:10098A00C72CD12C23302506031DCC2CCD2CD12CE1
:10099A0022000E102000AA014F302006031DD62C7B
:1009AA00D72CF92C46302106031DDC2CDD2CF92C22
:1009BA0046302206031DE22CE32CF92C30302306A4
:1009CA00031DE82CE92CF92C32302406031DEE2CE9
:1009DA00EF2CF92C23302506031DF42CF52CF92CC9
:1009EA0022008E102000AB014F302006031DFE2C82
:1009FA00FF2C212D46302106031D042D052D212D06
:100A0A0046302206031D0A2D0B2D212D30302306D8
:100A1A00031D102D112D212D33302406031D162DF3
:100A2A00172D212D23302506031D1C2D1D2D212DAB
:100A3A0022000E112000AC014F302006031D262D86
:100A4A00272D492D46302106031D2C2D2D2D492DEC
:100A5A0046302206031D322D332D492D3030230610
:100A6A00031D382D392D492D34302406031D3E2D02
:100A7A003F2D492D23302506031D442D452D492D93
:100A8A0022008E112000AD014F302006031D4E2D8D
:100A9A004F2D712D46302106031D542D552D712DD4
:100AAA0046302206031D5A2D5B2D712D3030230648
:100ABA00031D602D612D712D35302406031D662D11
:100ACA00672D712D23302506031D6C2D6D2D712D7B
:100ADA0022000E122000AE014F302006031D762D93
:100AEA00772D992D46302106031D7C2D7D2D992DBC
:100AFA0046302206031D822D832D992D3030230680
:100B0A00031D882D892D992D36302406031D8E2D1F
:100B1A008F2D992D23302506031D942D952D992D62
:100B2A0022008E122000AF014F302006031D9E2D99
:100B3A009F2DC12D46302106031DA42DA52DC12DA3
:100B4A0046302206031DAA2DAB2DC12D30302306B7
:100B5A00031DB02DB12DC12D37302406031DB62D2E
:100B6A00B72DC12D23302506031DBC2DBD2DC12D4A
:100B7A0022000E132000B0014F302006031DC62D9F
:100B8A00C72DE92D46302106031DCC2DCD2DE92D8B
:100B9A0046302206031DD22DD32DE92D30302306EF
:100BAA00031DD82DD92DE92D38302406031DDE2D3D
:100BBA00DF2DE92D23302506031DE42DE52DE92D32
:100BCA0022008E132000B1014F302006031DEE2DA6
:100BDA00EF2D1B2E46302106031DF42DF52D1B2E5D
:100BEA0046302206031DFA2DFB2D1B2E2A30230622
:100BFA00031D002E012E1B2E23302406031D062E54
:100C0A00072E1B2E22008E01F50108307502031CE7
:100C1A000F2E102E112E1B2E75082A3E86008701D4
:100C2A0081010130F3007308F5070A2E7D03031DC5
:100C3A001F2E202EA82A423020002006031D262E11
:100C4A00272E532E4C302106031D2C2E2D2E532ECB
:100C5A0049302206031D322E332E532E4E302306E0
:100C6A00031D382E392E532E4B302406031D3E2EDB
:100C7A003F2E532E30302506031D442E452E532E6B
:100C8A0031302606031D4A2E4B2E532E23302706BB
:100C9A00031D502E512E532EAA01AA0A42302006B5
:100CAA00031D582E592E852E4C302106031D5E2E0B
:100CBA005F2E852E49302206031D642E652E852E51
:100CCA004E302306031D6A2E6B2E852E4B302406CA
:100CDA00031D702E712E852E30302506031D762EAB
:100CEA00772E852E32302606031D7C2E7D2E852EEC
:100CFA0023302706031D822E832E852EAB01AB0AD5
:100D0A0042302006031D8A2E8B2EB72E4C30210628
:100D1A00031D902E912EB72E49302206031D962EC2
:100D2A00972EB72E4E302306031D9C2E9D2EB72ECE
:100D3A004B302406031DA22EA32EB72E30302506D3
:100D4A00031DA82EA92EB72E33302606031DAE2E5C
:100D5A00AF2EB72E23302706031DB42EB52EB72E7D
:100D6A00AC01AC0A42302006031DBC2EBD2EE92E72
:100D7A004C302106031DC22EC32EE92E493022060D
:100D8A00031DC82EC92EE92E4E302306031DCE2E72
:100D9A00CF2EE92E4B302406031DD42ED52EE92E54
:100DAA0030302506031DDA2EDB2EE92E34302606D6
:100DBA00031DE02EE12EE92E23302706031DE62E21
:100DCA00E72EE92EAD01AD0A42302006031DEE2EB4
:100DDA00EF2E1B2F4C302106031DF42EF52E1B2F50
:100DEA0049302206031DFA2EFB2E1B2F4E302306F6
:100DFA00031D002F012F1B2F4B302406031D062F26
:100E0A00072F1B2F30302506031D0C2F0D2F1B2FEC
:100E1A0035302606031D122F132F1B2F23302706CA
:100E2A00031D182F192F1B2FAE01AE0A42302006C0
:100E3A00031D202F212F4D2F4C302106031D262F55
:100E4A00272F4D2F49302206031D2C2F2D2F4D2FD2
:100E5A004E302306031D322F332F4D2F4B302406DD
:100E6A00031D382F392F4D2F30302506031D3E2FF5
:100E7A003F2F4D2F36302606031D442F452F4D2F69
:100E8A0023302706031D4A2F4B2F4D2FAF01AF0AE0
:100E9A0042302006031D522F532F7F2F4C3021063C
:100EAA00031D582F592F7F2F49302206031D5E2F0D
:100EBA005F2F7F2F4E302306031D642F652F7F2F50
:100ECA004B302406031D6A2F6B2F7F2F30302506E7
:100EDA00031D702F712F7F2F37302606031D762FA3
:100EEA00772F7F2F23302706031D7C2F7D2F7F2FFF
:100EFA00B001B00A42302006031D842F852FB12F7E
:100F0A004C302106031D8A2F8B2FB12F4930220620
:100F1A00031D902F912FB12F4E302306031D962FBC
:100F2A00972FB12F4B302406031D9C2F9D2FB12FD5
:100F3A0030302506031DA22FA32FB12F38302606E5
:100F4A00031DA82FA92FB12F23302706031DAE2F6B
:100F5A00AF2FB12FB101B10A42302006031DB62FBF
:100F6A00B72FA82A4C302106031DBC2FBD2FA82A53
:100F7A0049302206031DC22FC32FA82A4E3023064A
:100F8A00031DC82FC92FA82A4B302406031DCE2FB4
:100F9A00CF2FA82A2A302506031DD42FD52FA82AF9
:100FAA0023302606031DDA2FDB2FA82AF601083084
:100FBA007602031CE12FE22FE32FA82A76082A3EA5
:100FCA00860087018101810A0130F3007308F60760
:100FDA00DC2F80310228F901FA01FB01FC01FD0135
:100FEA00203084000030850013308031BE208731E4
:060FFA0020008231A32A51
:020000040001F9
:08000000FF3FFF3FFF3FFF3F00
:04000E00E43FFF3F8D
:00000001FF
