:08000000803102288731FD2F39
:100CCE007108F4007008F300702E0130F007003048
:100CDE00F13D70088400710885001200031D782E06
:100CEE00792E6C2E73087002F0007408713BF100BF
:100CFE0008008631E02686310030F7008830F80093
:100D0E0003302000A3002308F900FA0187313F27A2
:100D1E0086310C30F7008830F800F901F90A873176
:100D2E0091278631992E80310228F6000730F40083
:100D3E007D30890BA02EF40BA02E0000F001F00ADE
:100D4E0076088731042786317608F4000330F435AF
:100D5E00FF3E031DAE2E7435F5007508F600F0014A
:100D6E00F00A76088731042786310800F60007302E
:100D7E00F4007D30890BC12EF40BC12E0000F00162
:100D8E0076088731042786317608F4000330F4356F
:100D9E00FF3E031DCE2E7435F5007508F600C830E3
:100DAE000032890BD72EF001760887310427863161
:100DBE00080021008C018E018D0122008D018E0113
:100DCE008C011430F7007A30890BEB2EF70BEB2EDB
:100DDE0032308631BD26863128308631BD268631A9
:100DEE000C308631BD26863101308631BD268631E6
:100DFE0006308631BD2686310800F3007308F100F7
:100E0E000430F136890B082F7108F2007208F300D6
:100E1E0073080F39F1007108F30022000D128D12C4
:100E2E000D138D1373181C2F1D2F1F2F0D12202F16
:100E3E000D16F318232F242F262F8D12272F8D16E4
:100E4E0073192A2F2B2F2D2F0D132E2F0D17F3194C
:100E5E00312F322F342F8D13352F8D17700C20001C
:100E6E00031C0E1003180E148E100E150E11080012
:100E7E002000A20102307A020318462F472F902F2E
:100E8E0010307902031C4C2F4D2F4E2F902F7A03CA
:100E9E000319522F532F592F80307904A0000030A0
:100EAE00A1005E2FC0307904A0000030A100200800
:100EBE008631BD2687310730FB007D30890B652FCB
:100ECE00FB0B652F00007F2F7808FC007708FB00D6
:100EDE0022087B0784007C0803187C0A8500000822
:100EEE0086319C2687310130FB007B082000A2074B
:100EFE007808FC007708FB00200022087B0784009E
:100F0E007C0803187C0A85001200031D8F2F902F7A
:100F1E006B2F08002000A20102307902031C982FCB
:100F2E00992F9A2FFC2F790303199E2F9F2FB92FDC
:100F3E007808F1007708F000863167268731103087
:100F4E00FA0070087A02FB0071090318890AFC0086
:100F5E00FC36FB0C80307B042000A00000307C04AB
:100F6E00A100D22F7808F1007708F00086316726AD
:100F7E0087311030FA0070087A02FB0071090318ED
:100F8E00890AFC00FC36FB0CC0307B042000A0005C
:100F9E0000307C04A10020088631BD268731EB2F5E
:100FAE007808FB007708FA0022087A0784007B088D
:100FBE0003187B0A8500000886319C268731013094
:100FCE00FA007A082000A2077808FB007708FA00DA
:100FDE00200022087A0784007B0803187B0A85000C
:100FEE001200031DFB2FFC2FD72F08002000863187
:100FFE00802E48346F34563469346E346834543429
:10100E0072346F346E3467340034313436343A34DB
:0C101E00303430343A3430343034003494
:020000040001F9
:08000000FF3FFF3FFF3FFF3F00
:04000E00A409FF1D25
:00000001FF
