:060000000A128A11F82F1C
:100022005330F200F20B1328831203139F149F180C
:100032001B281C2818281E08F100831603131E080B
:10004200F00008000310720D730DF4007408FA003A
:100052007A08031D2D282E2837280030F30000309F
:10006200F2000030F1000030F0009C287008F4002B
:100072007108F5007208F6007308F7001F300310CC
:10008200F70CF60CF50CF40CFF3E031D4028740827
:10009200F8007808F900F217FF30F005FF30F1059B
:1000A200FF30F2050030F3059630FA02FA1F5A28A3
:1000B2005B2875287A08803A973E031861286228DF
:1000C20063282E2801300310F30CF20CF10CF00C13
:1000D200FF3E031D64280130F4007408FA07031D73
:1000E2007328742863288C2820307A02031C7A280B
:1000F2007B2887282E280130F4000310F00DF10D23
:10010200F20DF30DF40B7E280130FA027A08031D7A
:100112008B288C287C2879080319902891289C2800
:10012200F009F109F209F309F00A0319F10A0319B6
:10013200F20A0319F30A080083120313A80028081D
:100142000319A428A528B928A31FA828A928B928D3
:100152002009AA002109AB002209AC002309AD0045
:10016200AA0A0319AB0A0319AC0A0319AD0AC1287A
:100172002308AD002208AC002108AB002008AA0029
:100182002308220421042004031DC828C928D228D8
:100192000030A3000030A2000030A1000030A00017
:1001A20058299630A4002408A900E4280130A400AC
:1001B2002408A90701300310AD0CAC0CAB0CAA0C3F
:1001C200FF3E031DDC28FE302D05031DE928EA2829
:1001D200D72806290130A4002408A9070130AA075C
:1001E200003003180130AB07003003180130AC07B0
:1001F200003003180130AD0701300310AD0CAC0C18
:10020200AB0CAA0CFF3E031DFE28FF302D05031D7B
:100212000B290C29EB2818290130A9020130A4006E
:100222000310AA0DAB0DAC0DAD0DA40B1129AC1B27
:100232001B291C29222902302902031821292229DB
:100242000D292918252926292E29FF30AA05FF3034
:10025200AB057F30AC05FF30AD050310A90C2908B2
:10026200A400A501A601A70118300310A40DA50D35
:10027200A60DA70DFF3E031D36292408AA04250852
:10028200AB042608AC042708AD04280803194A2940
:100292004B295029A31F4E294F295029AD172D084C
:1002A200A3002C08A2002B08A1002A08A000080025
:1002B20083160313B2010514831603170814831659
:1002C2000313071087100711871507128712813051
:1002D200831203139F008030831603139F0032089A
:1002E200031D742975297F2983120313871D7A2917
:1002F2007B297F2983160313B201B20A83160313E3
:100302003203031D85298629922983120313871933
:100312008B298C2992290230EA006A08831603137A
:10032200B2000230831603133206031D99299A295B
:10033200A62983120313871D9F29A029A62903300A
:10034200EA006A0883160313B2000330831603130C
:100352003206031DAD29AE29BA2983120313871968
:10036200B329B429BA290430EA006A0883160313B0
:10037200B2000430831603133206031DC129C229B9
:10038200CE2983120313871DC729C829CE29053018
:10039200EA006A0883160313B200053083160313BA
:1003A2003206031DD529D629E229831203138719A0
:1003B200DB29DC29E2290630EA006A0883160313E6
:1003C200B2000630831603133206031DE929EA2917
:1003D200F42983120313871DEF29F029F4298316C8
:1003E2000313B201B20A831603133208031DFA295A
:1003F200FB29452AAE012E080A128A15B2210A12D9
:100402008A1183160313AF012F080A128A155C2181
:100412000A128A11413083120313EB00ED30EA0015
:10042200EA0B112AEB0B112A162A83120313871DDA
:100432001B2A1C2A2A2A3C30EA006A088316031364
:10044200AE003C3083120313EA006A0883160313DA
:10045200AF0001308312EA006A0883160313AF0764
:100462003C302F02031C362A372A052A0130831218
:100472000313EA006A0883160313AE073C302E0208
:10048200031C442A452AFC2902303206031D4A2A4B
:100492004B2A1D2B0A128A1111200A128A11710885
:1004A20083160313A5007008A400443083120313BB
:1004B200CB007F30CA00C030C9000030C8004230D3
:1004C200B1007030B0000030AF000030AE008316D3
:1004D2000313240883120313A000831603132508B1
:1004E20083120313A100A201A30100300A128A1190
:1004F2009D200A128A11831203132308B5002208D1
:10050200B4002108B3002008B2000A128A1197240D
:100512000A128A11831203133108CF003008CE0069
:100522002F08CD002E08CC000A128A158B230A123E
:100532008A11831203134B0883160313A300831239
:1005420003134A0883160313A200831203134908F4
:1005520083160313A100831203134808831603139F
:10056200A000230883120313E50083160313220855
:1005720083120313E4008316031321088312031367
:10058200E30083160313200883120313E2000A1206
:100592008A1524230A128A1183120313650883160B
:1005A2000313A90083120313640883160313A8001C
:1005B20083120313630883160313A7008312031322
:1005C200620883160313A6002908F3002808F20024
:1005D2002708F1002608F0004230F7007030F600DC
:1005E2000030F5000030F4000A128A15BA200A120F
:1005F2008A11031CFD2AFE2A082B4230831603139C
:10060200A9006C30A8000030A7000030A6008316B5
:1006120003132908F3002808F2002708F10026082E
:10062200F0000A128A1123200A128A1170080A1293
:100632008A15B2210A128A11043083160313320674
:10064200031D242B252BF72B0A128A1111200A12C3
:100652008A11710883160313A5007008A4004430A0
:1006620083120313CB007F30CA00C030C9000030B0
:10067200C8004230B1007030B0000030AF0000302E
:10068200AE0083160313240883120313A0008316FB
:100692000313250883120313A100A201A301003052
:1006A2000A128A119D200A128A1183120313230847
:1006B200B5002208B4002108B3002008B2000A12D3
:1006C2008A1197240A128A11831203133108CF0068
:1006D2003008CE002F08CD002E08CC000A128A1551
:1006E2008B230A128A11831203134B0883160313F6
:1006F200A300831203134A0883160313A200831272
:100702000313490883160313A10083120313480835
:1007120083160313A000230883120313E500831634
:100722000313220883120313E40083160313210820
:1007320083120313E30083160313200883120313A7
:10074200E2000A128A1524230A128A118312031361
:10075200650883160313AD0083120313640883161E
:100762000313AC0083120313630883160313AB0055
:1007720083120313620883160313AA002D08F300E1
:100782002C08F2002B08F1002A08F0004230F70092
:100792007030F6000030F5000030F4000A128A15BD
:1007A200BA200A128A11031CD72BD82BE22B423013
:1007B20083160313AD006C30AC000030AB00003088
:1007C200AA00831603132D08F3002C08F2002B084D
:1007D200F1002A08F0000A128A1123200A128A1153
:1007E20070080A128A155C210A128A1106308316D1
:1007F20003133206031DFE2BFF2B70292908F30079
:100802002808F2002708F1002608F0000A128A11CF
:1008120023200A128A11700883120313EA006A085D
:1008220083160313B0003C303002031C192C1A2C1F
:100832001B2C702930080A128A15B2210A128A1159
:10084200831603132D08F3002C08F2002B08F10085
:100852002A08F0000A128A1123200A128A1170084B
:1008620083120313EA006A0883160313B1003C30B3
:100872003102031C3D2C3E2C3F2C7D2C31080A12E8
:100882008A155C210A128A11413083120313EB008C
:10089200ED30EA00EA0B4B2CEB0B4B2C502C831265
:1008A2000313871D552C562C642C3C30EA006A0831
:1008B20083160313B0003C3083120313EA006A0864
:1008C20083160313B1003B30831603133106031D55
:1008D2006B2C6C2C742C0030AD000030AC0000305E
:1008E200AB000030AA00013083120313EA006A0849
:1008F20083160313B107382C3B303006031D822CBC
:10090200832C8B2C0030A9000030A8000030A700F7
:100912000030A600013083120313EA006A0883162E
:100922000313B007142C0A128A110028831203132E
:1009320031088039B6003608BB003108B6003607E8
:10094200B7003708C100B01FA72CA82CA92C41144E
:1009520041080319AD2CAE2CBD2C410A031DB22C4B
:10096200B32CBB2C0030B1000030B0000030AF001F
:100972000030AE00B017C52C0030B1000030B0001E
:100982000030AF000030AE0035088039B6003608BE
:10099200BB063508B6003607B7003708C000B41FDB
:1009A200D32CD42CD52C401440080319D92CDA2C82
:1009B200E92C400A031DDE2CDF2CE72C0030B500A9
:1009C2000030B4000030B3000030B200B417F12C94
:1009D2000030B5000030B4000030B3000030B20087
:1009E20040080319F52CF62CFB2C4108031DFA2CA8
:1009F200FB2C042D0030B1000030B0000030AF00FD
:100A02000030AE00F72F2E08B6003608F00034088A
:100A12000A128A1593200A128A117108831203138B
:100A2200C7007008C6004608B600B701B801B90190
:100A32003908BF003808BE003708BD003608BC00C0
:100A42004708B600B701B801B9013908C50038082E
:100A5200C4003708C3003608C2002F08B6003608A3
:100A6200F00033080A128A1593200A128A117108BB
:100A720083120313C7007008C6004608B600B70108
:100A8200B801B9013608BC07370803110318013E43
:100A920003194C2DBD07380803110318013E031931
:100AA200532DBE07390803110318013E03195A2DAD
:100AB200BF074708B600B701B801B9013608C20737
:100AC200370803110318013E0319682DC3073808BC
:100AD20003110318013E03196F2DC40739080311CE
:100AE2000318013E0319762DC5073008B6003608F3
:100AF200F00032080A128A1593200A128A1171082C
:100B020083120313C7007008C6004608B600B70177
:100B1200B801B9013608BC07370803110318013EB2
:100B22000319942DBD07380803110318013E031958
:100B32009B2DBE07390803110318013E0319A22D8C
:100B4200BF074708B600B701B801B9013608C207A6
:100B5200370803110318013E0319B02DC3073808E3
:100B620003110318013E0319B72DC40739080311F5
:100B72000318013E0319BE2DC5070830B600031045
:100B8200BC0DBD0DBE0DBF0DB60BC02D2F08B6009E
:100B92003608F00032080A128A1593200A128A11C6
:100BA200710883120313C7007008C6004608B60016
:100BB2004708B700B801B9013608BC073708031166
:100BC2000318013E0319E62DBD0738080311031867
:100BD200013E0319ED2DBE07390803110318013E2A
:100BE2000319F42DBF072E08B6003608F0003308AB
:100BF2000A128A1593200A128A11710883120313AA
:100C0200C7007008C6004608B6004708B700B8011A
:100C1200B9013608BC07370803110318013E03194E
:100C2200132EBD07380803110318013E03191A2EAB
:100C3200BE07390803110318013E0319212EBF070D
:100C42000830B6000310BC0DBD0DBE0DBF0DB60BB6
:100C5200232E2E08B6003608F00032080A128A1532
:100C620093200A128A11710883120313C7007008B5
:100C7200C6004608B6004708B700B801B9013608F1
:100C8200BC07370803110318013E0319492EBD079B
:100C9200380803110318013E0319502EBE07390804
:100CA20003110318013E0319572EBF072F08B60080
:100CB2003608F00034080A128A1593200A128A11A3
:100CC200710883120313C7007008C6004608B600F5
:100CD2004708B700B801B9013608C207370803113F
:100CE2000318013E0319762EC307380803110318AF
:100CF200013E03197D2EC407390803110318013E72
:100D02000319842EC5073008B6003608F0003308F0
:100D12000A128A1593200A128A1171088312031388
:100D2200C7007008C6004608B6004708B700B801F9
:100D3200B9013608C207370803110318013E031927
:100D4200A32EC307380803110318013E0319AA2E64
:100D5200C407390803110318013E0319B12EC50750
:100D62003008B6003608F00034080A128A159320BB
:100D72000A128A11710883120313C7007008C60091
:100D82004608B6004708B700B801B9010830031099
:100D9200B60DB70DB80DB90DFF3E031DC82E3608AE
:100DA200C207370803110318013E0319D92EC307DE
:100DB200380803110318013E0319E02EC40739084D
:100DC20003110318013E0319E72EC5073C08B600BC
:100DD2003D08B7003E08B8003F08B90018300310BC
:100DE200B90CB80CB70CB60CFF3E031DF02E36083A
:100DF200C207370803110318013E0319012FC30765
:100E0200380803110318013E0319082FC4073908D3
:100E120003110318013E03190F2FC5070830B6004E
:100E22000310BC0DBD0DBE0DBF0DB60B112F410839
:100E32004007B600B701B70D3608823EC600370834
:100E42000318013EFF3EC700432F0130B6000310D6
:100E5200C20DC30DC40DC50DB60B282FBF1F322FF7
:100E6200332F342F42140130B6000310BC0DBD0DD8
:100E7200BE0DBF0DB60B362FFF30C6070318C70ACB
:100E8200FF30C707C41F462F472F262FC001BF1FA1
:100E92004B2F4C2F682FFF303C05B600FF303D052D
:100EA200B700FF303E05B8007F303F05B900390872
:100EB20038043704360403195F2F602F632FC001F3
:100EC200C00A682F421C662F672F682F602F4008C8
:100ED20003196C2F6D2F9E2F0130C20700300318AB
:100EE2000130C307003003180130C4070030031873
:100EF2000130C507451C7E2F7F2F9E2F4208B6006A
:100F02004308B7004408B8004508B9000130BA00E8
:100F1200390DB90CB80CB70CB60CBA0B892F3908BD
:100F2200C5003808C4003708C3003608C2000130C3
:100F3200C6070318C70A0030C7074708803AFF00F0
:100F420080307F02031DA72FFF304602031CAA2F09
:100F5200AB2FB62F7F3083120313C5008030C4003D
:100F62000030C3000030C200EB2F83120313470886
:100F7200803AFF0080307F02031DC12F01304602FC
:100F82000318C42FC52FD12F003083120313C500BD
:100F92000030C4000030C3000030C200BB01EB2FA0
:100FA200831203134608B6003608C100FF30C2059B
:100FB200FF30C3057F30C4050030C505411CE22F58
:100FC200E32FE42FC4174108B6000310360CB70014
:100FD2003708C5003B08B6003608C5044508B1000D
:100FE2004408B0004308AF004208AE000800831274
:100FF2000313EC01ED0183010A128A115929083009
:101002008A000408840A820700344034F934243404
:0E10120030341934123402347834003410347F
:10105600F1008030F0007008F200F30171087205AB
:10106600031D362837283B288312031387123E2890
:10107600831203138716071607120310F20C0130AA
:10108600F0007008F30708307302031C4B284C2845
:1010960031280800F1008030F0007008F200F301FA
:1010A60071087205031D582859285D2883120313F9
:1010B6008710602883120313871407140710031080
:1010C600F20C0130F0007008F30708307302031CBD
:1010D6006D286E2853280800803083120313BC063F
:1010E6004008F3003F08F2003E08F1003D08F0001A
:1010F6003C08F7003B08F6003A08F5003908F4000A
:101106000A128A1568250A128A15730883120313B0
:10111600BC007208BB007108BA007008B90008006C
:10112600F800F401F5017008F200F3017208F60008
:101136007308F700781CA028A128A7287608F407CA
:101146000318F50A7708F50701300310F60DF70DB9
:10115600FF3E031DA8280310F80C7808031DB428C9
:10116600B5289D287508F1007408F00008000030C5
:101176007005F80000307105F90080307205FA003C
:101186007F307305FB007B087A0479047804031D1D
:10119600CD28CE28D6280030F3000030F2000030EB
:1011A600F1000030F00000307405F80000307505DD
:1011B600F90080307605FA007F307705FB007B0862
:1011C6007A0479047804031DE928EA28F228003015
:1011D600F7000030F6000030F5000030F400770824
:1011E6007306031D002976087206031D002975087B
:1011F6007106031D002974087006031903290429C2
:101206000629031007290314080083120313230871
:10121600F3002208F2002108F1002008F000003057
:10122600F7000030F6000030F5000030F4000A1236
:101236008A15BA200A128A15031C222923292C2969
:10124600831203132408840083138001840A800117
:101256005B298312031323087F39FC00FD01031069
:10126600FC0DFD0D240884007C0883138000840A8D
:101276007D088000220D220D0139FC00FD012408A5
:1012860084007C088004840A7D0880042408840085
:1012960082308007840F00080318000AFF00FF3021
:1012A6007F0780008403230880393F38A300A213F8
:1012B600080083120313A4000A30F0000030F10086
:1012C6002408F900FA017908F2007A08F3000A12F4
:1012D6008A15BD220A128A157008013E84000A1278
:1012E6008A1500200A128A15FB00FC017B0883126E
:1012F6000313A0007C08A1000A30F0000030F100C2
:101306002408F900FA017908F2007A08F3000A12B3
:101316008A1508220A128A157008013E84000A12EC
:101326008A1500200A128A15FB00FC017B0883122D
:101336000313A2007C08A30022080A128A152B2098
:101346000A128A158312031320080A128A152B2003
:101356000A128A1583120313071507110800831250
:101366000313A4000A30F0000030F1002408F9004D
:10137600FA017908F2007A08F3000A128A15BD22EA
:101386000A128A157008013E84000A128A15002086
:101396000A128A15FB00FC017B0883120313A000C6
:1013A6007C08A1000A30F0000030F1002408F900A2
:1013B600FA017908F2007A08F3000A128A1508225F
:1013C6000A128A157008013E84000A128A15002046
:1013D6000A128A15FB00FC017B0883120313A20084
:1013E6007C08A30022080A128A154D200A128A15C3
:1013F6008312031320080A128A154D200A128A1531
:1014060083120313071507110800F601F31F0C2AB0
:101416000D2A142AF209F309F20A0319F30AF6014E
:10142600F60AF11F172A182A1D2AF009F109F00AEF
:101436000319F10A700871040319222A232A522A71
:10144600F501F50A312A01300310F00DF10DFF3ECA
:10145600031D272A0130F4007408F507F11F342A0A
:10146600352A262A71087302031D3B2A7008720268
:10147600031C3E2A3F2A452A7008F2027108031C03
:10148600F303F30201300310F10CF00CFF3E031DD1
:10149600462A0130F502031D512A522A352A7608BA
:1014A6000319562A572A5C2AF209F309F20A031984
:1014B600F30A7308F1007208F000080083120313A0
:1014C6003108A3003008A2002F08A1002E08A000B2
:1014D6003730B2003208A4000A128A1508210A120F
:1014E6008A1583120313B81F792A7A2A832A0030B1
:1014F600B1000030B0000030AF000030AE00BC2AB2
:10150600003038021D3003193702031C8B2A8C2A3F
:101516008D2ABC2A3108F3003008F2002F08F100AA
:101526002E08F0000A128A1123200A128A1573085F
:1015360083120313A3007208A2007108A1007008A9
:10154600A00001300A128A119D200A128A15831200
:1015560003132308B6002208B5002108B4002008AA
:10156600B3003608B1003508B0003408AF003308C0
:10157600AE000800F601F11FC12AC22AC92AF009E5
:10158600F109F00A0319F10AF601F60AF31FCC2A4B
:10159600CD2AD62AF209F309F20A0319F30A013011
:1015A600F4007408F606F701F801700871040319CF
:1015B600DD2ADE2A152BF501F50AEC2A0130031087
:1015C600F00DF10DFF3E031DE22A0130F400740810
:1015D600F507F11FEF2AF02AE12A01300310F70D73
:1015E600F80DFF3E031DF12A71087302031DFD2A43
:1015F60070087202031C002B012B082B7008F202E4
:101606007108031CF303F302771401300310F10C85
:10161600F00CFF3E031D092B0130F502031D142BB0
:10162600152BF02A76080319192B1A2B1F2BF709ED
:10163600F809F70A0319F80A7808F1007708F000A4
:101646000800831203136508B1006408B00063083C
:10165600AF006208AE000A128A1561220A128A15C4
:10166600831203133108BC003008BB002F08BA00F0
:101676002E08B9006508C0006408BF006308BE00F4
:101686006208BD000A128A156F200A128A15831293
:1016960003133C08E9003B08E8003A08E70039086C
:1016A600E6006908F3006808F2006708F1006608BA
:1016B600F0006508F7006408F6006308F5006208A4
:1016C600F4000A128A1568250A128A15730883120D
:1016D6000313E5007208E4007108E3007008E200F5
:1016E6006508B1006408B0006308AF006208AE0088
:1016F6000A128A1561220A128A1583120313310807
:10170600E5003008E4002F08E3002E08E200080098
:10171600831203134F088039D0005008D9004F08B0
:10172600D0005007D1005108E000CE1F9B2B9C2B08
:101736009D2B601460080319A12BA22BB22B600A03
:10174600031DA62BA72BAF2B0030CF000030CE00F9
:101756000030CD000030CC00CE17CF01BA2B0030C0
:10176600CF000030CE000030CD000030CC004B085A
:101776008039D0005008D9064B08D0005007D10058
:101786005108E100CA1FC82BC92BCA2B6114610876
:101796000319CE2BCF2BDF2B610A031DD32BD42BA2
:1017A600DC2B0030CB000030CA000030C90000300E
:1017B600C800CA17CB01E72B0030CB000030CA00A7
:1017C6000030C9000030C8004B084A0449044804E8
:1017D600031DEE2BEF2B082C0030CF000030CE007F
:1017E6000030CD000030CC008030CE047F30CF04F6
:1017F6005908D0005008CF044F08CB004E08CA0045
:101806004D08C9004C08C800672D6008031D0C2C44
:101816000D2C162C0030CB000030CA000030C90059
:101826000030C800672D6008D000D1015108D300F0
:1018360061085002D200031CD30352087F3EDA002F
:1018460053080318013E003EDB004F08D8004E083F
:10185600D7004D08D6004C08D5000030CF00003028
:10186600CE000030CD000030CC000030DF0000306C
:10187600DE000030DD000030DC00E1018C2C610868
:101886000319462C472C672C0130D0000310D50DC8
:10189600D60DD70DD80DD00B492C0130D000031032
:1018A600CC0DCD0DCE0DCF0DD00B522CDF1F5C2CE9
:1018B6005D2C5E2C4C140130D0000310DC0DDD0DC8
:1018C600DE0DDF0DD00B602C4B085802031D752C66
:1018D6004A085702031D752C49085602031D752C2C
:1018E60048085502031C782C792C882C5F17480869
:1018F600D5024908031C490FD6024A08031C4A0FA1
:10190600D7024B08031C4B0FD8020130D0005008F9
:10191600E1071A306102031C912C922C422C5808C4
:101926005704560455040319992C9A2CB92C5C14A7
:10193600B92C0130D0000310CC0DCD0DCE0DCF0D3E
:10194600D00B9E2CDF1FA82CA92CAA2C4C140130DE
:10195600D0000310DC0DDD0DDE0DDF0DD00BAC2C41
:10196600FF30DA070318DB0AFF30DB07CE1FBC2C7B
:10197600BD2C9C2CE101DF1FC12CC22CDE2CFF30BC
:101986005C05D000FF305D05D100FF305E05D2005A
:101996007F305F05D30053085204510450040319E5
:1019A600D52CD62CD92CE101E10ADE2C4C1CDC2CE2
:1019B600DD2CDE2CD62C61080319E22CE32C142D29
:1019C6000130CC07003003180130CD070030031872
:1019D6000130CE07003003180130CF074F1CF42C1E
:1019E600F52C142D4C08D0004D08D1004E08D2001D
:1019F6004F08D3000130D400530DD30CD20CD10CB8
:101A0600D00CD40BFF2C5308CF005208CE0051083F
:101A1600CD005008CC000130DA070318DB0A00308D
:101A2600DB075B08803AFF0080307F02031D1D2D17
:101A3600FF305A02031C202D212D2F2DFF3083123B
:101A46000313DA000030DB000030CF000030CE0098
:101A56000030CD000030CC00831203135B08803ABF
:101A6600FF0080307F02031D3A2D01305A02031811
:101A76003D2D3E2D4B2D83120313DA01DB01003081
:101A8600CF000030CE000030CD000030CC00D901B0
:101A9600831203135A08D0005008E000601C542D2E
:101AA600552D572DCE175B2D7F30D0005008CE0513
:101AB6006008D0000310500CD1005108CF0059081F
:101AC600D0005008CF04FF2B08007308803983121A
:101AD6000313A0002008F8007308A0002007A10047
:101AE6002108FA00F21F782D792D7A2D7A147A08BA
:101AF60003197E2D7F2D8F2D7A0A031D832D842DAC
:101B06008C2D0030F3000030F2000030F100003080
:101B1600F000F217F301972D0030F3000030F200C9
:101B26000030F1000030F00077088039A00020086E
:101B3600F900790878060319A12DA22DA32D78178F
:101B46007708A0002007A1002108F900F61FAC2D98
:101B5600AD2DAE2D791479080319B22DB32DC32DF1
:101B6600790A031DB72DB82DC02D0030F7000030BF
:101B7600F6000030F5000030F400F617F701CB2D23
:101B86000030F7000030F6000030F5000030F400B9
:101B96007A0879020318D02DD12D152E781FD42D51
:101BA600D52DD92D8030A0002008F8067A08A0008F
:101BB6002008FB007908A0002008FA007B08A00096
:101BC6002008F9007008A0002008FB007408A00097
:101BD6002008F0007B08A0002008F4007108A0008F
:101BE6002008FB007508A0002008F1007B08A00073
:101BF6002008F5007208A0002008FB007608A00067
:101C06002008F2007B08A0002008F6007308A00058
:101C16002008FB007708A0002008F3007B08A0003E
:101C26002008F700FB017908A000A1012108A30004
:101C36007A082002A200031CA3032308803AFF00AF
:101C460080307F02031D292E1A302202031C2C2EFF
:101C56002D2E6E2E7308720471047004031D342E2B
:101C6600362E0130372E003083120313A0002008D1
:101C7600FB000030F3000030F2000030F1000030CD
:101C8600F0007908A0002008FA00742E7B1C4C2E68
:101C96004D2E582E7B0883120313A0000310200C30
:101CA6000138A1002108FB005A2E0310FB0C701C02
:101CB6005D2E5E2E5F2EFB17013083120313A000EC
:101CC600730DF30CF20CF10CF00CA00B632E01302B
:101CD600A0002008FA0779087A02031C732E742ED6
:101CE600492E781B772E782EC72E7A08031D7C2E58
:101CF6007D2E862E0030F3000030F2000030F10019
:101D06000030F000FF2F7408F00775080311031860
:101D1600013E03198F2EF107760803110318013EC1
:101D26000319962EF207770803110318013E0319CB
:101D36009D2EF307731CA02EA12E7F2F7B1CA42E95
:101D4600A52EB02E7B0883120313A0000310200CCF
:101D56000138A1002108FB00B22E0310FB0C701CF9
:101D6600B52EB62EB72EFB17013083120313A00033
:101D7600730DF30CF20CF10CF00CA00BBB2E013022
:101D8600A0002008FA077F2F7308803AFF00770823
:101D9600803A7F02031DD92E76087202031DD92EC2
:101DA60075087102031DD92E740870020318DC2E03
:101DB600DD2E372FFF3083120313A000FF30A10062
:101DC600FF30A200FF30A3007408A4007508A50028
:101DD6007608A6007708A7007008A4027108031CFD
:101DE600710FF62EF72EA5027208031C720FFC2E39
:101DF600FD2EA6027308031C730F022F032FA702E2
:101E06002408A00725080318250F0A2F0B2FA10762
:101E160026080318260F102F112FA20727080318CC
:101E2600270AA3072308F3002208F2002108F1007D
:101E36002008F0008030A0002008F806FB09FB0A05
:101E46007B08031D272F282F452F0130F007003070
:101E560003180130F107003003180130F207003093
:101E660003180130F307452F7408F0027508031CA8
:101E7600750FF1027608031C760FF2027708031C31
:101E8600770FF3027308720471047004031D4C2F5C
:101E96004D2F7B2F7B08031D512F522F7B2F003098
:101EA600F3000030F2000030F1000030F000FF2FA8
:101EB600013083120313A0000310F00DF10DF20D93
:101EC600F30DA00B5F2FFB1F692F6A2F6B2F70146A
:101ED6007B1C6E2F6F2F722F0314FB0D742F0310B4
:101EE600FB0D7A080319782F792F7B2F0130FA0220
:101EF600F21F7E2F7F2F5B2FF901FB1F832F842F6D
:101F0600922F7B087F390319892F8A2F8D2FF9018C
:101F1600F90A922F701C902F912F922F8A2F7908F1
:101F26000319962F972FCD2F0130F0070030031895
:101F36000130F107003003180130F20700300318B2
:101F46000130F307731CA82FA92FCD2F7008831219
:101F56000313A0007108A1007208A2007308A30071
:101F66000130A400230DA30CA20CA10CA00CA40B01
:101F7600B52F2308F3002208F2002108F1002008FB
:101F8600F0007A0A0319C82FC92FCD2F0130A000FF
:101F96002008FA077A0A0319D12FD22FD72F7A08E9
:101FA600031DD62FD72FE52F0030F3000030F200A7
:101FB6000030F1000030F0007A08031DE32FE42F13
:101FC600E52FF8017A1CE82FE92FEB2FF217F12FF6
:101FD6007F3083120313A0002008F2057A088312CB
:101FE6000313A0000310200CA1002108F300F81F22
:0A1FF600FD2FFE2FFF2FF317080048
:08400000FF3FFF3FFF3FFF3FC0
:04400E00D420FF3F7C
:00000001FF
