:100000008031972C000054396F3767103218311A3D
:10001000B618B01B0000D4326D38A01EA012AE1866
:1000200066104300203085000B308400000803195F
:100030001F285230F700F70B1B28800B19280800E7
:100040004018262822008E112828200022008E1514
:1000500021008E112000C018312822000E123328F2
:10006000200022000E1621000E12200040193C280C
:1000700022008E123E28200022008E1621008E12B1
:100080002000C019472822000E1349282000220012
:100090000E1721000E13000022000E1521000E1174
:1000A00022000E1121000E1120000800C1012100C4
:1000B0008E15003020008E190130C10421000E166B
:1000C000003020000E1A0130F7000310F70D7708FA
:1000D000C10421008E16003020008E1A0130F70076
:1000E000F70DF70DFC30F7057708C10421000E1756
:1000F000003020000E1B0130F700F70DF70DF70D53
:10010000F830F7057708C1044108F800080021001D
:100110000E110E108E1022000E1021000E108E15E2
:100120000E168E160E1722008E1421008E1000005F
:1001300022000E1521000E11000020005620780824
:10014000C00022000E1121000E11000022000E1529
:1001500021000E11200056207808BF0022000E1149
:1001600021000E118E110E128E120E132000400E61
:10017000F700F030F70577083F04F8007808BF0073
:10018000BF1FC42821008F28BD08031DCB282200D3
:100190000E10CD28200022000E1421000E100000A9
:1001A00022008E1021008E10000022000E1121006E
:1001B0000E1120003E0EBF000F30BF053F08C000EB
:1001C00020203E080F39BF00C00020200800283042
:1001D000A7000C30A8000130A9000630AA002200B8
:1001E0000E1121000E1122000E1021000E1022000F
:1001F0008E1021008E108E110E128E120E130E1103
:100200000E108E100F302000AB0012200130A6001F
:100210002608033C031C14290330C00020200530AD
:10022000AB001220A60A08290230C00020200530A9
:10023000AB001220A6012608033C031C2E29073020
:1002400026078400203085000318850A0008AB00CB
:10025000BD012B08BE008720A60A1B298031B72CC0
:100260008E30F7002908F8002808F900FA01F8088C
:10027000031D44297908F800F9010830F702F8084D
:10028000031D4429F7014C290310F81B4B29F90DD4
:10029000F80DF7034429F8138031CD2C28080319F1
:1002A000132AB8002C080319132AB802031C5D296D
:1002B0007F30B8070318132A63298130B802031C62
:1002C000132A0319132A3808F700F801F901FA0173
:1002D000B7012908B600B6172A08B5002B08B400E4
:1002E0001930B8002F08B402031886290130B5026E
:1002F00003188629B60203188629B702031886292F
:10030000B70AB60AB50A2F08B407B8292E08B502ED
:100310000318A1290130B6020318A129B702031856
:10032000A129B70AB60A2E08B5072F08B407031C7F
:10033000B829B50A031DB829B60A031DB829B70A9A
:10034000B8292D088038B6020318B7290130B70242
:100350000318B729B70A2D088038B6072E08B50745
:10036000031C9529B60A031D9529B70A95297A1405
:10037000B80BBB29C6290310B40DB50DB60DB70DCA
:100380000310FA0DF90DF80DB90D7229391CCE299B
:100390000310F80CF90CFA0CB90CD129F703031966
:1003A000132AB91BFA290310B40DB50DB60DB70DFC
:1003B0002F08B4020318E6290130B5020318E62914
:1003C000B6020318E629B702031C092A2E08B50253
:1003D0000318F1290130B6020318F129B702031CF2
:1003E000092A2D088038B6020318FA290130B7020D
:1003F000031C092AFA0A031D092AF90A031D092AFE
:10040000F80A031D092AF70A0319132AF80CF90C34
:10041000FA0C2908B8002D08B806B81F112AF817D9
:10042000172AF813172AF701F801F901FA018031A8
:10043000DE2C3A0B1C2A1F2A4030BB00202ABB01AD
:1004400001303902BB073B088038BC00BD013C08C5
:10045000BE00872008003808073A0319392A0B3AEA
:1004600003193E2A063A0319482A023A03194E2A6A
:10047000532A0130B900BA001922582ABD010130AF
:10048000BE008720A630F700F70B442A0000582A48
:100490000130B9000230BA001922582ABD011030CB
:1004A000BE008720582A0130BD003808BE008720D2
:1004B00008000B088B13230095171514000000008B
:1004C000891B8B1713087F390319A12A2000A80064
:1004D000230011082000A900230012082000AA0010
:1004E0002808B8002B2229082300910020002A08A0
:1004F000230092000B088B139517151400000000C1
:10050000891B8B17130D140D7F390319A12A2000A5
:10051000A800230011082000A900230012082000D1
:10052000AA002808B8002B222908230091002000E7
:100530002A0823009200910A0319920A2000592ADE
:10054000230080312000F12C0B088B13230095171A
:10055000151400000000891B8B170318D52A1308F7
:100560007F392000A800230011082000A9002300E3
:1005700012082000AA002808B8002B22290823000E
:10058000910020002A08230092000B088B13951776
:10059000151400000000891B8B172000A60BD12A20
:1005A000D32A2300D52AF32A2300130D140D7F39F3
:1005B0002000A800230011082000A9002300120831
:1005C0002000AA002808B8002B2229082300910047
:1005D00020002A0823009200910A0319920A0310AE
:1005E0002000A60BA42A8031002D8318FB2A20307E
:1005F000850023308400F701F801F901FA01C301F5
:10060000C401C501C6013F083E043D043C04031972
:10061000392B2030C7000310B80DB90DBA0DBB0D32
:10062000C30DC40DC50DC60D3F084602031D222B88
:100630003E084502031D222B3D084402031D222BC8
:100640003C084302031C332B3C08C3023D08031C37
:100650003D0FC4023E08031C3E0FC5023F08031CA9
:100660003F0FC6020314F70DF80DF90DFA0DC70B75
:100670000B2B430880004408813F4508823F460811
:10068000833F08000408B0002A08B2000319D42BE5
:100690002908BB002808BA002708B9002608B800B6
:1006A000BF01BE012030BD008230BC0038080319F4
:1006B000C62BC3003C080319C62BC3070318672BBE
:1006C0007F30C302031CC62B0319C62B6B2B813052
:1006D000C3070318C62B4308F700F801F901FA0114
:1006E0003908C700C7173A08C6003B08C5001830CC
:1006F000C300C401451C942B3F08FA07031C862B3A
:10070000F90A031D862BF80A0319C4173E08F907D6
:10071000031C8D2BF80A0319C4173D08BA00BA1739
:100720003A08F8070318C417C40DF80CF90CFA0CB2
:10073000C70CC60CC50C0310C30B792B0130F7078F
:100740000318C62BF81BAB2BC70DFA0DF90DF80DCE
:10075000F7030319C62BC71FBC2BFA0A031DBC2BBA
:10076000F90A031DBC2BF80A031DBC2BF80CF90C6D
:10077000FA0CF70A0319C62B3908C4003D08C40651
:10078000C41FC42BF817CA2BF813CA2BF701F801A2
:10079000F901FA017A08A9007908A8007808A700E9
:1007A0007708A600B20B482B2908BB002808BA001E
:1007B0002708B9002608B8003808B63CB800FA0186
:1007C0003908BC00B9170310B90CBA0CBB0CFA0CF1
:1007D000F90CF80CF70CB80BE32BBC1FFA2BF7093C
:1007E000F809F909FA09F70A0319F80A0319F90AC5
:1007F0000319FA0A7A08A9007908A8007808A7005E
:100800007708A600A91F112CB003B016A609A709E6
:10081000A809A909A60A0319A70A0319A80A03190E
:10082000A90A3B30B7009A30B600CA30B500B4010F
:100830000A30B2002A080319B00A83142030850058
:10084000063084002908BB002808BA002708B90030
:100850002608B8003708BF003608BE003508BD00BE
:100860003408BC00F5227808F708031D4A2C2A0A30
:10087000320203194A2C300803194C2C0F3932026A
:100880000319442C03187C2CB01B7C2C301B4C2CE3
:100890002030782C2030B005B01E5A2CB0122A0817
:1008A000031DB0037708B0002D30B8002B223008AC
:1008B000F700B0012A083202031D682C7708B00047
:1008C0002E30B8002B223008F7002030B005003061
:1008D0003030B01E782CB0122A08031DB003770800
:1008E000B0002D30B8002B223008F700B0013030B6
:1008F000F7077708B8002B2283103708BB003608AB
:10090000BA003508B9003408B800BF01BE01BD0106
:100910000A30BC00F5227A08B7007908B6007808DA
:10092000B5007708B400B20B1D2C80310D2DA50148
:10093000A40123008C018D018E01220092019101FE
:1009400094019301FF3021008C001E109E10043092
:1009500023008C0000308E008D0021001E109E10A0
:100960001E169E161E139E171D142000E728083021
:10097000F80021001D08833978049D00BF2C9D14C8
:100980009D18C02C1C08FA001B082000A6007A083D
:10099000A700A9002608A80030297A08AB0079082A
:1009A000AA007808A9007708A800AA30AF00F130A3
:1009B000AE000230AD008030AC004E297A08A300B2
:1009C0007908A2007808A1007708A0000130B900DA
:1009D000BA00192203302300910000309200200059
:1009E000592A0130B9000230BA0019220B30230015
:1009F000910000309200031007302000A600A42AC6
:100A0000893084002308A9002208A8002108A70033
:100A10002008A6000130AA00422B2030B8002B226B
:0A0A20004330B8002B22B72C63000E
:020000040001F9
:04000E00C13FFF1FD0
:00000001FF
;PIC16F1509
;CRC=0116  CREATED="30-Apr-22 17:29"
