:060000000A128A11EE2F26
:100D4C00C034F934A434B034993492348234F83445
:100D5C00803490347E088A007F0882000A128A113F
:100D6C00B0260A128A118000840A04087D06031931
:100D7C000034FF0A0319FE0AB42EF601F31FC72E26
:100D8C00C82ECF2EF209F309F20A0319F30AF60161
:100D9C00F60AF11FD22ED32ED82EF009F109F00A43
:100DAC000319F10A700871040319DD2EDE2E0D2FC4
:100DBC00F501F50AEC2E01300310F00DF10DFF3E9C
:100DCC00031DE22E0130F4007408F507F11FEF2E1D
:100DDC00F02EE12E71087302031DF62E70087202BC
:100DEC00031CF92EFA2E002F7008F2027108031C56
:100DFC00F303F30201300310F10CF00CFF3E031D62
:100E0C00012F0130F502031D0C2F0D2FF02E76084B
:100E1C000319112F122F172FF209F309F20A0319D4
:100E2C00F30A7308F1007208F0000800F601F11FD4
:100E3C00202F212F282FF009F109F00A0319F10AAC
:100E4C00F601F60AF31F2B2F2C2F352FF209F3097D
:100E5C00F20A0319F30A0130F4007408F606F701DC
:100E6C00F8017008710403193C2F3D2F742FF50104
:100E7C00F50A4B2F01300310F00DF10DFF3E031D51
:100E8C00412F0130F4007408F507F11F4E2F4F2F3E
:100E9C00402F01300310F70DF80DFF3E031D502FAE
:100EAC0071087302031D5C2F70087202031C5F2F04
:100EBC00602F672F7008F2027108031CF303F30212
:100ECC00771401300310F10CF00CFF3E031D682F5A
:100EDC000130F502031D732F742F4F2F7608031961
:100EEC00782F792F7E2FF709F809F70A0319F80ADA
:100EFC007808F1007708F0000800203084002D30CD
:100F0C00F9000408FA000A30FB0079088400831306
:100F1C000008FC00F90A7A0884007C088000FA0AB0
:100F2C00FB0B8B2F83160313870188018312AC01F3
:100F3C000A30F0000030F1002C08F900FA017908B1
:100F4C00F2007A08F3000A128A111C270A128A117D
:100F5C007008FB007B0883120313AA000A30F00010
:100F6C000030F1002C08F900FA017908F2007A0837
:100F7C00F3000A128A11C3260A128A117008FB00A8
:100F8C007B0883120313AB002A08203E84008313D2
:100F9C00000887002B08203E8400000888004130A0
:100FAC00FA00EE30F900F90BD92FFA0BD92F00000B
:100FBC000130F900790883120313AC0764302C025A
:100FCC00031CE92FEA2F9E2F9C2F0A128A1100284E
:100FDC0083133730FD000630FE00A630FF002D30A5
:100FEC0084000A128A11B4260A128A1183010A1289
:040FFC008A11832FA4
:08400000FF3FFF3FFF3FFF3FC0
:02400E003A3F37
:00000001FF
