:060000000A128A11EE2F26
:100CBE00C034F934A434B034993492348234F834D4
:100CCE008034903483160313051085018601870145
:100CDE00880189010A128A114D270A128A11712E72
:100CEE000A128A1100287E088A007F0882000A12E2
:100CFE008A117A260A128A118000840A04087D0657
:100D0E0003190034FF0A0319FE0A7E2EF601F31FA3
:100D1E00912E922E992EF209F309F20A0319F30A73
:100D2E00F601F60AF11F9C2E9D2EA22EF009F10956
:100D3E00F00A0319F10A700871040319A72EA82EE0
:100D4E00D72EF501F50AB62E01300310F00DF10D78
:100D5E00FF3E031DAC2E0130F4007408F507F11FA1
:100D6E00B92EBA2EAB2E71087302031DC02E700859
:100D7E007202031CC32EC42ECA2E7008F202710812
:100D8E00031CF303F30201300310F10CF00CFF3ED1
:100D9E00031DCB2E0130F502031DD62ED72EBA2EF3
:100DAE0076080319DB2EDC2EE12EF209F309F20A86
:100DBE000319F30A7308F1007208F0000800F60137
:100DCE00F11FEA2EEB2EF22EF009F109F00A0319AB
:100DDE00F10AF601F60AF31FF52EF62EFF2EF20992
:100DEE00F309F20A0319F30A0130F4007408F60647
:100DFE00F701F801700871040319062F072F3E2F13
:100E0E00F501F50A152F01300310F00DF10DFF3E1F
:100E1E00031D0B2F0130F4007408F507F11F182F76
:100E2E00192F0A2F01300310F70DF80DFF3E031D89
:100E3E001A2F71087302031D262F70087202031CED
:100E4E00292F2A2F312F7008F2027108031CF30389
:100E5E00F302771401300310F10CF00CFF3E031D6A
:100E6E00322F0130F502031D3D2F3E2F192F76082C
:100E7E000319422F432F482FF709F809F70A0319D0
:100E8E00F80A7808F1007708F00008002030840096
:100E9E003630F9000408FA000A30FB0079088400A5
:100EAE0083130008FC00F90A7A0884007C0880008D
:100EBE00FA0AFB0B552F173083120313B4000030C0
:100ECE00B5000A30F0000030F1003508F3003408A8
:100EDE00F2000A128A118D260A128A1171088312E3
:100EEE000313AF007008AE000A30F0000030F100BE
:100EFE003508F3003408F2000A128A11E6260A12A7
:100F0E008A11710883120313B1007008B0002E0805
:100F1E00203E84008313000887003008203E8400A2
:100F2E00000888003B30B2000030B3000A30F000F9
:100F3E000030F1003308F3003208F2000A128A1171
:100F4E008D260A128A11710883120313AB007008E2
:100F5E00AA000A30F0000030F1003308F300320826
:100F6E00F2000A128A11E6260A128A1171088312F9
:100F7E000313AD007008AC002A08203E84008313D2
:100F8E00000885002C08203E8400000886002130D1
:100F9E00FA007630F900F90BD22FFA0BD22F00009F
:100FAE00FF3083120313B2070318B30AFF30B307DF
:100FBE00B31FE22FE32F9D2FFF30B4070318B50A9E
:100FCE00FF30B507B51FEC2FED2F682F08008313E8
:100FDE004030FD000630FE005F30FF0036308400EA
:100FEE000A128A117E260A128A1183010A128A11A6
:020FFE00692E5A
:08400000FF3FFF3FFF3FFF3FC0
:04400E00D420FF3F7C
:00000001FF
