:08000000803102288731FD2F39
:100C220021000E148E140E158E110E128E12220039
:100C32008E110E128E1286312126863180310228C3
:100C42002000AA01AB01AC01AD0101302000A200DD
:100C52000030A30020000E1C2F2E302E442E22081E
:100C6200FF3EF000FF30233DF1002B087106031D0B
:100C72003C2E2A087006031D3F2E402E442E2308C8
:100C8200AB002208AA000230A2070030A33D2308CD
:100C9200803AF00080307002031D512E0B30220288
:100CA200031C542E552E2B2E02302000A40000309F
:100CB200A50020000E185E2E5F2E732E2408FF3E24
:100CC200F000FF30253DF1002B087106031D6B2E4D
:100CD2002A087006031D6E2E6F2E732E2508AB0098
:100CE2002408AA000230A4070030A53D2508803A56
:100CF200F00080307002031D802E0B302402031C92
:100D0200832E842E5A2E023020002A062B04031D25
:100D12008B2E8C2E8E2E22008E15043020002A0659
:100D22002B04031D952E962E992E22008E110E163F
:100D3200063020002A062B04031DA02EA12EA52E6C
:100D420022008E110E128E16083020002A062B0465
:100D5200031DAC2EAD2EB12E22008E110E128E125C
:100D62000A3020002A062B04031DB82EB92EBA2EF3
:100D7200FC2F0130A6000030A70020008E1CC22EDE
:100D8200C32ED72E2608FF3EF000FF30273DF1008C
:100D92002D087106031DCF2E2C087006031DD22EBE
:100DA200D32ED72E2708AD002608AC000230A607A6
:100DB2000030A73D2708803AF00080307002031D02
:100DC200E42E0B302602031CE72EE82EBE2E023044
:100DD2002000A8000030A90020008E18F12EF22E6B
:100DE200062F2808FF3EF000FF30293DF1002D08B4
:100DF2007106031DFE2E2C087006031D012F022F03
:100E0200062F2908AD002808AC000230A8070030E0
:100E1200A93D2908803AF00080307002031D132F8B
:100E22000B302802031C162F172FED2E0230200044
:100E32002C062D04031D1E2F1F2F4C2F2F08803A26
:100E4200F00080307002031D282F7D302E0203181F
:100E52002B2F2C2F382F22008E155330890B2F2F3A
:100E6200000001302000AE070030AF3D4C2F2000C3
:100E72002F08803AF00080307002031D422FFA30B2
:100E82002E020318452F462F492F22008E112E2F96
:100E92002000AE01AF0104302C062D04031D522F99
:100EA200532F832F22008E1120002F08803AF0004A
:100EB20080307002031D5F2F7D302E020318622FD7
:100EC200632F6F2F22000E165330890B662F0000FE
:100ED20001302000AE070030AF3D832F20002F08E5
:100EE200803AF00080307002031D792FFA302E0212
:100EF20003187C2F7D2F802F22000E12652F2000D9
:100F0200AE01AF0106302C062D04031D892F8A2F56
:100F1200BB2F22008E110E1220002F08803AF00003
:100F220080307002031D972F7D302E0203189A2FF6
:100F32009B2FA72F22008E165330890B9E2F000065
:100F420001302000AE070030AF3DBB2F20002F083C
:100F5200803AF00080307002031DB12FFA302E0269
:100F62000318B42FB52FB82F22008E129D2F200008
:100F7200AE01AF0108302C062D04031DC12FC22F74
:100F8200C62F22008E110E128E120A3020002C065D
:100F92002D04031DCD2FCE2FCF2FFC2F0E1DD22FB0
:100FA200D32F262E2108803AF00082307002031DD2
:100FB200DC2FEF302002031CDF2FE02FE12FFC2F6C
:100FC20001302000A0070030A13D5330890BE72FEC
:100FD200000020002108803AF00082307002031DD8
:100FE200F42FF0302002031CF72FF82F262E2000BA
:0E0FF200A001A101262E080020008631112E3C
:020000040001F9
:08000000FF3FFF3FFF3FFF3F00
:04000E00A209FF1D27
:00000001FF
