:060000000A128A11EE2F26
:100C9800C034F934A434B034993492348234F834FA
:100CA80080349034831603138501860187018801F7
:100CB80089010A128A1139270A128A115D2E0A122D
:100CC8008A1100287E088A007F0882000A128A1189
:100CD80066260A128A118000840A04087D06031910
:100CE8000034FF0A0319FE0A6A2EF601F31F7D2E4F
:100CF8007E2E852EF209F309F20A0319F30AF6018A
:100D0800F60AF11F882E892E8E2EF009F109F00AB5
:100D18000319F10A700871040319932E942EC32E37
:100D2800F501F50AA22E01300310F00DF10DFF3E7A
:100D3800031D982E0130F4007408F507F11FA52E45
:100D4800A62E972E71087302031DAC2E700872022E
:100D5800031CAF2EB02EB62E7008F2027108031CC9
:100D6800F303F30201300310F10CF00CFF3E031DF6
:100D7800B72E0130F502031DC22EC32EA62E76080B
:100D88000319C72EC82ECD2EF209F309F20A03194A
:100D9800F30A7308F1007208F0000800F601F11F69
:100DA800D62ED72EDE2EF009F109F00A0319F10A22
:100DB800F601F60AF31FE12EE22EEB2EF209F309F3
:100DC800F20A0319F30A0130F4007408F606F70171
:100DD800F801700871040319F22EF32E2A2FF50179
:100DE800F50A012F01300310F00DF10DFF3E031D30
:100DF800F72E0130F4007408F507F11F042F052FB2
:100E0800F62E01300310F70DF80DFF3E031D062FD7
:100E180071087302031D122F70087202031C152F2C
:100E2800162F1D2F7008F2027108031CF303F3023A
:100E3800771401300310F10CF00CFF3E031D1E2F38
:100E48000130F502031D292F2A2F052F76080319D3
:100E58002E2F2F2F342FF709F809F70A0319F80A4C
:100E68007808F1007708F000080020308400363058
:100E7800F9000408FA000A30FB007908840083139B
:100E88000008FC00F90A7A0884007C088000FA0A45
:100E9800FB0B412F83120313B401B5010A30F00094
:100EA8000030F100831203133508F3003408F20010
:100EB8000A128A1179260A128A11710883120313F9
:100EC800AF007008AE000A30F0000030F1003508BD
:100ED800F3003408F2000A128A11D2260A128A1183
:100EE800710883120313B1007008B0002E08203E69
:100EF80084008313000887003008203E840000081F
:100F08008800B201B3010A30F0000030F10083120A
:100F180003133308F3003208F2000A128A11792603
:100F28000A128A11710883120313AB007008AA0011
:100F38000A30F0000030F1003308F3003208F20004
:100F48000A128A11D2260A128A117108831203130F
:100F5800AD007008AC002A08203E84008313000806
:100F680085002C08203E8400000886000430FA0022
:100F78003D30F900F90BBE2FFA0BBE2FC32F0130FD
:100F880083120313B2070318B30A0030B3073308F8
:100F9800803AFF0080307F02031DD42F3C3032029C
:100FA800031CD72FD82F872F013083120313B407C0
:100FB8000318B50A0030B5073508803AFF008030BD
:100FC8007F02031DE92F18303402031CEC2FED2F8C
:100FD800522F080083134030FD000630FE004C30CD
:100FE800FF00363084000A128A116A260A128A1112
:080FF80083010A128A11562E32
:08400000FF3FFF3FFF3FFF3FC0
:04400E00D420FF3F7C
:00000001FF
