:060000000A128A11FC2F18
:100DFA00831603138701880183120313870188016D
:100E0A000A128A1113270A128A110A128A117E27D4
:100E1A000A128A11052F0A128A1100288030F0005E
:100E2A007008F2008030F0007008F300F401F50158
:100E3A0072088312031388007208F0000310700C02
:100E4A00F1007108F200083074067504031D2E2F94
:100E5A002F2F302F4C2F6230F1006530F000F00B4D
:100E6A00342FF10B342F392F0130F4070318F50A08
:100E7A000030F5077508803AFF0080307F02031DB5
:100E8A00482F09307402031C4B2F4C2F1D2FF601DB
:100E9A00F70173088312031387007308F000031025
:100EAA00700CF1007108F300083076067704031D10
:100EBA005F2F602F612F7D2F6230F1006530F000C7
:100ECA00F00B652FF10B652F6A2F0130F607031817
:100EDA00F70A0030F7077708803AFF0080307F0270
:100EEA00031D792F09307602031C7C2F7D2F4E2F8C
:100EFA0008008030F0007008F2008030F0007008BE
:100F0A00F3008030F0007008F4008030F0007008C0
:100F1A00F500F601F7017208F0000310700CF100F9
:100F2A007108F200750883120313880075087207A6
:100F3A00F0007008F500083076067704031DA62F26
:100F4A00A72FA82FC42F6230F1006530F000F00BF4
:100F5A00AC2FF10BAC2FB12F0130F6070318F70AAB
:100F6A000030F7077708803AFF0080307F02031DC0
:100F7A00C02F09307602031CC32FC42F902FF8010B
:100F8A00F9017308F0000310700CF1007108F30006
:100F9A00740883120313870074087307F00070083B
:100FAA00F400083078067904031DDC2FDD2FDF2FCB
:100FBA00870188016230F1006530F000F00BE32F01
:100FCA00F10BE32FE82F0130F8070318F90A003074
:100FDA00F9077908803AFF0080307F02031DF72F56
:100FEA0009307802031CFA2FFB2FC62F0800830151
:060FFA000A128A11FD2E0F
:08400000FF3FFF3FFF3FFF3FC0
:02400E003A3F37
:00000001FF
