:08000000803102288731EF2F47
:100C5C00700C2200031C8E1003188E140E140E1030
:100C6C000800FE0012001E000130FE020030FF3BA7
:100C7C007F087E04031D382E00347A082000A10062
:100C8C007908A000A035A10DA035A10DA035A10DAE
:100C9C002008FB002108FC006C2E8C302000A000EA
:100CAC002130A1007B08200786007C08213D8700AD
:100CBC000108A200A3012208F0002308F1008631EC
:100CCC002E2686310130FB070030FC3D7A082000CF
:100CDC00A1007908A000A035A10DA035A10DA0356B
:100CEC00A10D2008083EA2000030213DA3007C0885
:100CFC00803AA4002308803A2402031D872E220880
:100D0C007B02031C8A2E8B2E532E080021000E1002
:100D1C008E100E112000A501A6010A30F000003043
:100D2C00F10020002608F3002508F2008631D926B0
:100D3C0086317108FA007008F90086314326863135
:100D4C000A30F0000030F10020002608F3002508DE
:100D5C00F20087312C2786317108FA007008F900EF
:100D6C008631432686312130FD007630890BBC2E2E
:100D7C00FD0BBC2E003222000E150E11013020008E
:100D8C00A5070030A63D2608803AFD0080307D0284
:100D9C00031DD22E64302502031CD52ED62E932E85
:100DAC00902E80310228F601F31FDD2EDE2EE52E6B
:100DBC00F209F309F20A0319F30AF601F60AF11F14
:100DCC00E82EE92EEE2EF009F109F00A0319F10ACA
:100DDC00700871040319F32EF42E1D2FF501F50A7A
:100DEC00002F0130F035F10D890BF82E0130F40095
:100DFC007408F507F11F032F042FF72E71087302E7
:100E0C00031D0A2F70087202031C0D2F0E2F122FB8
:100E1C007008F2027108F33B0130F136F00C890BCB
:100E2C00132F0130F502031D1C2F1D2F042F7608E4
:100E3C000319212F222F272FF209F309F20A031984
:100E4C00F30A7308F1007208F0000800F601F11FB4
:100E5C00302F312F382FF009F109F00A0319F10A5C
:100E6C00F601F60AF31F3B2F3C2F452FF209F3092D
:100E7C00F20A0319F30A0130F4007408F606F701BC
:100E8C00F8017008710403194C2F4D2F7C2FF501BC
:100E9C00F50A592F0130F035F10D890B512F013026
:100EAC00F4007408F507F11F5C2F5D2F502F0130F3
:100EBC00F735F80D890B5E2F71087302031D682F2F
:100ECC0070087202031C6B2F6C2F712F7008F202CA
:100EDC007108F33B77140130F136F00C890B722F4B
:100EEC000130F502031D7B2F7C2F5D2F7608031933
:100EFC00802F812F862FF709F809F70A0319F80AB2
:100F0C007808F1007708F000080000340034013450
:100F1C000134013401340134013400340034003420
:100F2C000034003401340134003400340134003412
:100F3C000134013400340134013400340134003400
:100F4C0000340134013401340134003401340134EF
:100F5C0000340034013401340034003401340134E1
:100F6C0000340134013400340134003401340134D0
:100F7C0001340134013400340134003400340034C1
:100F8C0000340034013401340134003401340134B0
:100F9C00013401340134013401340034013401349E
:100FAC000034013401340134013400340034003491
:100FBC000034003400340034003400340034003485
:100FCC000034003400340034003400340034003475
:100FDC0000348B308400873085008C3086002130C3
:100FEC0087000030FF0064308631372687312000BF
:040FFC0086318C2E80
:020000040001F9
:08000000FF3FFF3FFF3FFF3F00
:04000E00A209FF1D27
:00000001FF
