:08000000803102288731FD2F39
:100DDE0087314D2786310030F7008830F800873193
:100DEE0071278631F701F70A003087319727863150
:100DFE001030F7008830F800873171278631062FC2
:100E0E0080310228F6000730F4007D30890B0D2F5B
:100E1E00F40B0D2F0000F001F00A76088731C2277F
:100E2E0087317608F4000330F435FF3E031D1B2F87
:100E3E007435F5007508F600F001F00A7608873172
:100E4E00C22787310800F6000730F4007D30890B89
:100E5E002E2FF40B2E2F0000F00176088731C227BB
:100E6E0087317608F4000330F435FF3E031D3B2F27
:100E7E007435F5007508F600C8300032890B442F22
:100E8E00F00176088731C2278731080021008C01D6
:100E9E008E018D0122008D018E018C011430F70020
:100EAE007A30890B582FF70B582F323087312A277B
:100EBE008731283087312A2787310C3087312A270E
:100ECE008731013087312A278731063087312A272B
:100EDE0087310800FC01862F7808FA007708F900A0
:100EEE007C08790784007A0803187A0A85000008BE
:100EFE008731092787310130F9007908FC07780816
:100F0E00FA007708F9007C08790784007A0803183C
:100F1E007A0A85001200031D952F962F732F080055
:100F2E00FB000230770203189D2F9E2FC12F103029
:100F3E007B02031CA32FA42FA52FC12F7703031908
:100F4E00A92FAA2FB02F80307B04F9000030FA00B1
:100F5E00B52FC0307B04F9000030FA0079088731D4
:100F6E002A2787310730F8007D30890BBC2FF80B0C
:100F7E00BC2F00000800F3007308F1000430F136B6
:100F8E00890BC62F7108F2007208F30073080F392F
:100F9E00F1007108F30022000D128D120D138D1346
:100FAE007318DA2FDB2FDD2F0D12DE2F0D16F3182F
:100FBE00E12FE22FE42F8D12E52F8D167319E82FF6
:100FCE00E92FEB2F0D13EC2F0D17F319EF2FF02F39
:100FDE00F22F8D13F32F8D17700C2000031C0E10A3
:100FEE0003180E148E100E150E11080020008631F7
:100FFE00EF2E2034203448346F3420345634693484
:10100E006E3468342034543472346F346E34673432
:10101E0000342034203420342034313433343A3404
:0C102E00303435343A343034303400347F
:020000040001F9
:08000000FF3FFF3FFF3FFF3F00
:04000E00A409FF1D25
:00000001FF
