:08000000803102288731EF2F47
:100B4600700C2200031C8E1003188E140E140E1047
:100B56000800FE0012001E000130FE020030FF3BBE
:100B66007F087E04031DAD2D00347A082000A10005
:100B76007908A000A035A10DA035A10DA035A10DC5
:100B86002008FB002108FC00E42D7C082000A100C1
:100B96007B08A000A035A10D2830A2002130A300BB
:100BA6002008220786002108233D8700403FF000E9
:100BB600413FF1008531A32585310130FB07003027
:100BC600FC3D7A082000A1007908A000A035A10DFF
:100BD600A035A10DA035A10D2008083EA2000030C9
:100BE600213DA3007C08803AA4002308803A240211
:100BF600031DFF2D22087B02031C022E032EC82D87
:100C06000800F601F31F082E092E102EF209F3092B
:100C1600F20A0319F30AF601F60AF11F132E142E2F
:100C2600192EF009F109F00A0319F10A7008710486
:100C360003191E2E1F2E482EF501F50A2B2E013004
:100C4600F035F10D890B232E0130F4007408F507F9
:100C5600F11F2E2E2F2E222E71087302031D352E04
:100C660070087202031C382E392E3D2E7008F202CF
:100C76007108F33B0130F136F00C890B3E2E013042
:100C8600F502031D472E482E2F2E760803194C2EEB
:100C96004D2E522EF209F309F20A0319F30A7308CC
:100CA600F1007208F0000800F601F11F5B2E5C2EC1
:100CB600632EF009F109F00A0319F10AF601F60AA2
:100CC600F31F662E672E702EF209F309F20A031936
:100CD600F30A0130F4007408F606F701F80170080B
:100CE60071040319772E782EA72EF501F50A842EA6
:100CF6000130F035F10D890B7C2E0130F4007408BB
:100D0600F507F11F872E882E7B2E0130F735F80D5B
:100D1600890B892E71087302031D932E70087202C7
:100D2600031C962E972E9C2E7008F2027108F33B38
:100D360077140130F136F00C890B9D2E0130F50247
:100D4600031DA62EA72E882E76080319AB2EAC2ED1
:100D5600B12EF709F809F70A0319F80A7808F1001D
:100D66007708F000080021008E0122000E108E1078
:100D76000E113B302000A5000030A6003C30A70035
:100D86000030A8000A30F0000030F1002808F30017
:100D96002708F2008631042686317108FA007008A9
:100DA600F9008531B82586310A30F0000030F100AF
:100DB60020002808F3002708F200863157268631DE
:100DC6007108FA007008F9008531B82586310A30B5
:100DD600F0000030F10020002608F3002508F2009C
:100DE6008631042686317108FA007008F9008531CB
:100DF600B82586310A30F0000030F10020002608C0
:100E0600F3002508F2008631572686317108FA006C
:100E16007008F9008531B825863122000E150E11AD
:100E2600FF302000A707FF30A83DA81F1B2F1C2F4F
:100E3600C52EFF30A507FF30A63DA61F232F242F62
:100E4600C12EBC2E80310228003400340034003418
:100E560001340034013400340134003401340034E8
:100E660001340034013400340034003400340034DA
:100E760000340034003400340034003401340034CB
:100E860001340034003400340034003401340034BA
:100E960000340034013400340134003400340034AA
:100EA6000134003401340034003400340134003499
:100EB600003400340034003401340034013400348A
:100EC6000134003401340034003400340134003479
:100ED600013400340034003400340034013400346A
:100EE600013400340034003400340034013400345A
:100EF6000134003400340034013400340134003449
:100F06000034003401340034003400340134003439
:100F16000134003401340034013400340134003427
:100F2600003400340134003400340034003400341A
:100F3600003400340034003400340034013400340A
:100F460001340034013400340034003401340034F8
:100F560001340034013400340134003401340034E7
:100F660001340034013400340034003401340034D8
:100F760001340034003400340134003401340034C8
:100F860001340034013400340034003400340034B9
:100F960000340034003400340034003400340034AB
:100FA600003400340034003400340034003400349B
:100FB600003400340034003400340034003400348B
:100FC600003400340034003400340034003400347B
:100FD6000034003400340034273084008730850024
:100FE60028308600213087000030FF00C830853168
:0A0FF600AC25873120008631B62EAD
:020000040001F9
:08000000FF3FFF3FFF3FFF3F00
:04000E00A209FF1D27
:00000001FF
